:020000040800F2
:10000000209C0020390900080D0700080F07000890
:1000100013070008170700081B070008000000006E
:100020000000000000000000000000001F070008A2
:10003000210700080000000023070008250700082A
:100040005309000853090008530900085309000820
:100050005309000853090008530900085309000810
:100060005309000853090008530900085309000800
:1000700053090008530900085309000853090008F0
:1000800053090008530900085309000853090008E0
:1000900053090008530900085309000853090008D0
:1000A00053090008530900085309000853090008C0
:1000B00053090008530900085309000853090008B0
:1000C00053090008530900085309000853090008A0
:1000D00053090008F32D00085309000853090008CC
:1000E0005309000853090008530900085309000880
:1000F0005309000853090008530900085309000870
:100100005309000853090008573000085309000834
:10011000530900085309000853090008530900084F
:10012000530900085309000853090008530900083F
:10013000530900085309000853090008530900082F
:10014000530900085309000853090008530900081F
:10015000530900085309000853090008530900080F
:1001600053090008530900085309000853090008FF
:1001700053090008530900085309000853090008EF
:1001800053090008530900084B1C012B98BF704706
:100190002DE9F003911C9B08B1F80480B1F802909E
:1001A0000A8831F802CC8044814402448444D9F85E
:1001B0000070D8F800601568DCF80040C9F80060ED
:1001C000C8F80070CCF800501460D9F80470D8F862
:1001D00004605568DCF80440C9F80460C8F804708D
:1001E000CCF80450546008315B1ED5D1BDE8F00353
:1001F00070474B1C012B98BF70472DE9F003911CF1
:100200009B08B1F80480B1F802900A8831F802CC5A
:1002100000EB580800EB590900EB520200EB5C0CB4
:10022000D9F80070D8F800601568DCF80040C9F80B
:100230000060C8F80070CCF80050146008315B1EF4
:10024000DFD1BDE8F0037047DFF80CD004F080FA8E
:1002500000480047B9020008209C002070B5044601
:1002600000250FE05CB12146FA4800F04BFE00BFCC
:100270008021F84800F0F6FE0028F9D000E070BDBB
:10028000681CC5B2032DEDDB00BFF8E770B504466E
:10029000002510E0605D68B1615DEE4800F032FE5F
:1002A00000BF8021EB4800F0DDFE0028F9D0681C7B
:1002B000C5B200E070BDEDE72DED048B86B0A8203F
:1002C00002F088F94FF4165002F041FD4FF44070EF
:1002D00000F044FB02F0D2FDA721632002F012FFE0
:1002E0005321632002F05CFF02F011FE02F058FE81
:1002F0000024D949D94801F09CFAD9A0FFF7C6FFDC
:10030000FF20FFF7ABFFA4E100BFD748007801282A
:1003100005D0D149D14801F070FA0128F5D100206B
:10032000D1490870CC49CD4801F083FA002408E097
:10033000CE4830F8140000B2CD4921F81400601CFA
:1003400084B2B4F5806FF3DB012300229902684682
:1003500003F016F8C74AC649684603F0F8F80024C7
:100360000DE0C44830F9140000EE100AB8EEC00ADF
:10037000C14800EB840080ED000A601C84B2B4F533
:10038000006FEEDB4FF48062BC49BB4802F07AFF9D
:1003900000241EE0B94800EB840090ED000ADFED78
:1003A000B80A80EE201A11EE105A284603F0EEFF2C
:1003B00041EC190B9FEDB30B53EC102B03F0F8FE3F
:1003C00041EC180B04F00EF8B04941F82400601C11
:1003D00084B2B4F5806FDDDBAD48D0ED000A9FED4F
:1003E000AD1A80EE810AAC4890ED001AC1EE000A09
:1003F000A74890ED001ADFEDA71A81EE210AA64862
:1004000090ED001AC1EE001ABDEEE10AB8EEC00A86
:1004100030EEC00A10EE105A284603F0B7FF41EC48
:10042000180B9FED9E0B53EC102B03F0C3FF13D85A
:100430009748D0ED000A9FED971A80EE810A964802
:10044000D0ED000A80EE801ABDEEC10A10EE100A4F
:10045000401C9449086010E08D48D0ED000A9FEDE3
:100460008D1A80EE810A8C48D0ED000A80EE801A49
:10047000BDEEC10A8B4880ED000A8A4800688A49AF
:100480000860854890ED000ADFED880AB4EEE00AC6
:10049000F1EE10FA39D8002424E06000401C8249B3
:1004A00009684843794901EB800090ED000A8048D3
:1004B00000EB840080ED000A6000C01C7A490968E6
:1004C0004843724901EB800090ED000A794800EB47
:1004D000840080ED000A78480068401C7649086076
:1004E000601C84B26000401C6F4909684843B0F545
:1004F000806FD2DB9FED710A6F480068401E6D4926
:1005000001EB800080ED000A5DE0002457E06548C3
:1005100000680A38A0420AD1624800680A385B497C
:1005200001EB800090ED000A654880ED000A574815
:1005300000EB840090ED000A6148D0ED000AB4EEB3
:10054000E00AF1EE10FA07DB504800EB840090ED72
:10055000000A5B4880ED000A524800680A30844275
:100560002BD1574890ED000A51485349096800EBD8
:10057000810080ED000A5048006801280ADB5048DD
:1005800090ED000A4C480068401E4A4901EB80008B
:1005900080ED000A48480068401C4749086008464A
:1005A00000684000401C4049096848433D490860D4
:1005B0009FED440A424880ED000A601C84B240F27C
:1005C000F6308442A3DB00243B480068411E3E48CD
:1005D0000268384803F078F83C48026836480168F9
:1005E000334803F071F83A4890ED000A3948D0EDED
:1005F000000A80EE201A384880ED001A90ED000ABB
:10060000DFED360A20EE200A10EE101A084603F03D
:10061000BDFE41EC180B53EC182B31A004F0DCF8B4
:10062000FF20FFF71BFE1C48006803F0AFFE41EC03
:10063000180B53EC182B2FA004F0CEF8FF20FFF777
:100640000DFE00201C490860012202212E4801F005
:10065000BDFE59E600100140200000101064024069
:10066000706167652030000061000020209000204C
:1006700078000020780800207840002078200020B2
:10068000000080456666666666660A40783000202F
:1006900000000020000080447400002000000000E2
:1006A0000000E03F24000020280000200000C84394
:1006B000E8770020786000201C0000200000000087
:1006C0002C000020F0FF7F491000002014000020C3
:1006D00004000020080000200C0000200000C84298
:1006E00074302E7478743D22252E33662525222001
:1006F0000000000074332E7478743D22252E33667A
:10070000687A222000000000000C0040704700BF03
:10071000FEE700BFFEE700BFFEE700BFFEE7704751
:1007200070477047704700000CB5002001900090A2
:100730007648006840F480307449086000BF734810
:10074000006800F4003000900198401C019000986F
:1007500018B90198B0F5A04FF1D16C48006800F4C9
:10076000003010B10120009001E0002000900098BE
:10077000012846D165484030006840F08050634908
:10078000403108606248006840F4404060490860B9
:100790005E48083000685D49083108600846006816
:1007A00040F4004008600846006840F4A05008602B
:1007B0005848091F0860081F006840F08070091F32
:1007C000086000BF5148006800F000700028F9D0B0
:1007D00040F20570504908604C480830006820F02D
:1007E00003004A49083108600846006840F00200EA
:1007F000086000BF45480830006800F00C00082879
:10080000F8D10CBD10B54548006840F4700043496C
:1008100008603E48006840F001003C490860002044
:100820003A4908310860394800683D49084037496D
:1008300008603C48091D0860081F006820F48020FB
:10084000091F0860002031490C310860FFF76CFF78
:100850004FF0006031498039086010BD70B500204C
:100860000022022300240221284D08352D6805F0BE
:100870000C0020B1042806D0082834D107E02A4D06
:100880002A4E356033E02A4D284E35602FE01F4D4B
:100890002D1D2D68C5F380541C4D2D1D2D6805F0B0
:1008A0003F0154B1224DB5FBF1F5184E361D3668A7
:1008B000C6F3881605FB06F209E01B4DB5FBF1F502
:1008C000124E361D3668C6F3881605FB06F20F4D2C
:1008D0002D1D2D68C5F301456D1C6B00B2FBF3F5B2
:1008E000124E356003E0104D104E356000BF00BF62
:1008F000064D08352D68C5F303150E4E705D0B4D82
:100900002D68C540094E356070BD000000380240BA
:100910000070004008544007003C024088ED00E0B1
:10092000FFFFF6FE103000240024F4003000002009
:1009300000127A003400002006488047064800472D
:10094000FEE7FEE7FEE7FEE7FEE7FEE7FEE7FEE77F
:10095000FEE7FEE7050800084902000832490143A6
:10096000324A1160704770B5002100230F22C4780D
:100970001CB32E4C246804F4E064C4F5E064C4F3B2
:100980000721C1F10404E3B20A4144789C40E1B27A
:100990008478144021430C07210E254C05786155BD
:1009A000047804F01F050124AC4005786D11AD00FA
:1009B00005F1E025C5F8004109E0047804F01F05C1
:1009C0000124AC401B4D0678761145F8264070BDD9
:1009D000194A0A400243154B1B1F1A60704739B170
:1009E000124A121D12680243104B1B1D1A6006E0CA
:1009F0000E4A121D126882430C4B1B1D1A60704771
:100A0000042808D14FF0E021096941F004014FF0BA
:100A1000E022116107E04FF0E021096921F00401B3
:100A20004FF0E022116170470000FA050CED00E084
:100A300000E400E080E100E080FFFF1F10B5044605
:100A40009848844208D10121084602F08AF8002122
:100A5000012002F086F876E09348844208D1012113
:100A6000022002F07EF80021022002F07AF86AE00B
:100A70008E48844208D10121042002F072F800213E
:100A8000042002F06EF85EE08948844208D101211A
:100A9000082002F066F80021082002F062F852E017
:100AA0008448844208D10121102002F05AF8002124
:100AB000102002F056F846E07F48844208D1012118
:100AC000202002F04EF80021202002F04AF83AE0FF
:100AD0007A48844208D10121402002F042F80021E6
:100AE000402002F03EF82EE07548844208D10121F2
:100AF000802002F036F80021802002F032F822E057
:100B00007048844208D10121801502F02AF80021A2
:100B1000A01502F026F816E06B48844208D10121A6
:100B2000401502F01EF80021601502F01AF80AE0E4
:100B30006648844207D10121001502F012F8002115
:100B4000201502F00EF810BDF0B50A460021002372
:100B5000002400BF3DE0012505FA01F3156805EA10
:100B600003049C4234D105684F000326BE40B543C0
:100B7000056015794E00B540066835430560157966
:100B8000012D02D01579022D16D185684F0003265C
:100B9000BE40B543856055794E00B5408668354303
:100BA0008560456801268E40B54345604568967965
:100BB0008E40B6B235434560C5684F000326BE403F
:100BC000B543C560D5794E00B540C6683543C560AC
:100BD000491C1029BFD3F0BD4FF6FF710160002101
:100BE000017141718171C171704708B54FF4803254
:100BF0000092009A0A430092009AC261C161009A71
:100C0000C261C2690092C269009208BD024600201A
:100C100013690B400BB1012000E000207047014632
:100C2000086980B270470246002053690B400BB13F
:100C3000012000E0002070470146486980B27047FB
:100C400001837047418370470AB1018300E041830B
:100C500070474161704742694A4042617047F0B550
:100C6000002300244D07ED0E02FA05F3CE1000F12B
:100C7000200555F826504E07F70E0F26BE40B54307
:100C8000CF1000F1200646F82750CE1000F12005C5
:100C900055F8265045EA0304CE1000F1200545F82A
:100CA0002640F0BD0000024000040240000802405F
:100CB000000C0240001002400014024000180240E4
:100CC000001C024000200240002402400028024094
:100CD00010B50446FA48844208D10121102001F0E1
:100CE00084FF0021102001F080FF57E0F548844286
:100CF00009D10121480401F067FF00214FF40030C1
:100D000001F062FF4AE0F048844209D101218804E1
:100D100001F05AFF00214FF4802001F055FF3DE023
:100D2000EA48844209D10121C80401F04DFF0021A5
:100D30004FF4002001F048FF30E0E548844209D13B
:100D40000121080501F040FF00214FF4801001F05F
:100D50003BFF23E0DF48844208D10121202001F03D
:100D600044FF0021202001F040FF17E0DA488442D0
:100D700009D10121880701F027FF00214FF08040B1
:100D800001F022FF0AE0D548844207D10121400545
:100D900001F01AFF0021600501F016FF10BD2DE9DA
:100DA000FF4705460E460024A14600BFA046B08975
:100DB00000B100BF2C8A24F44054F08804432C82F4
:100DC000AC8941F20C608443B08831890843718951
:100DD00008430443AC81AC8A24F44074B0890443D2
:100DE000AC82684601F081FDB548854202D0B94821
:100DF000854202D1DDF80C9001E0DDF80890A88969
:100E000000F4004040B109EBC90000EB0910316863
:100E10004900B0FBF1F707E009EBC90000EB09104E
:100E200031688900B0FBF1F76420B7FBF0F00401F2
:100E30002009642101FB1078A88900F4004040B12A
:100E4000322000EBC800B0FBF1F000F007000443D3
:100E500008E0322000EB08106421B0FBF1F000F054
:100E60000F0004432C81BDE8FF874FF41651016049
:100E700000218180C18001810C214181002181817B
:100E8000704710B502460020108A20F470600B886D
:100E90004C8823438C882343CC88234318431082F7
:100EA00010BD0021018041808180C180704721B147
:100EB000828942F40052828104E082894DF6FF73F8
:100EC0001A4082817047028B02F47F420283028BB8
:100ED0000A430283704721B1828942F40042828131
:100EE00003E08289C2F30E028281704721B1828AB7
:100EF00042F40062828204E0828A4FF2FF731A4059
:100F000082827047C1F30802828070470146888858
:100F1000C0F308007047028A4FF6F0731A4002824D
:100F2000028A0A430282704721B1828942F002029A
:100F3000828104E082894FF6FD731A4082817047F6
:100F400082894FF2FF731A40828182890A4382812B
:100F50007047028A4FF6DF731A400282028A0A4300
:100F60000282704721B1028A42F48042028204E088
:100F7000028A4BF6FF731A4002827047818941F062
:100F800001018181704721B1828A42F00802828288
:100F900004E0828A4FF6F7731A4082827047028B10
:100FA000D2B20283028B42EA01220283704721B14E
:100FB000828A42F02002828204E0828A4FF6DF7346
:100FC0001A408282704721B1828A42F010028282E6
:100FD00004E0828A4FF6EF731A4082827047828A59
:100FE0004FF6FB731A408282828A0A4382827047DC
:100FF00021B1828A42F00202828204E0828A4FF6A4
:10100000FD731A40828270471AB1838A0B43838230
:1010100002E0838A8B4383827047F0B50346002445
:1010200000260025002040F66A17B94200D100BF13
:101030001846C1F3421401F01F06012707FA06F50E
:10104000012C01D10C3004E0022C01D1103000E061
:1010500014301AB107682F43076002E00768AF43F6
:101060000760F0BD02460020B1F5007F00D100BF4F
:1010700013880B400BB1012000E00020704701F401
:101080000072B2F5007F00D100BFCA4302807047F2
:1010900070B50246002400230025002040F66A16A1
:1010A000B14200D100BFC1F3421501F01F03012678
:1010B00006FA03F3012D13D19689334017E000009F
:1010C000001001400044004000480040004C004037
:1010D000005000400014014000780040007C0040B7
:1010E000022D02D1168A334001E0968A33400C1259
:1010F000012606FA04F41688344013B10CB101201D
:1011000000E0002070BD10B50022002340F66A14F4
:10111000A14200D100BF0A1201249440A3B2DC43D3
:10112000048010BD10B50121080201F05EFD002110
:101130004FF4807001F059FD10BD30B5024600201B
:1011400000235068F84C20400D790C6844EA0524CF
:10115000204350609068F54C2040D1E903542C4363
:101160008D682C434D7944EA450420439060D06A51
:1011700020F470000C7D641EE4B2234340EA035067
:10118000D06230BD00210160017141718160C16098
:1011900001610121017570470021E54A1168E54AA6
:1011A0001140D0E900231A4383681A43C3681A43E5
:1011B0001143E14AC2F80413704700210160416005
:1011C0008160C160704721B1826842F00102826093
:1011D00003E0826822F00102826070470A46002123
:1011E0004168D64B194011434160704741628262A9
:1011F00070470A460021416821F01F0111434160F8
:10120000704738B1CA49096841F40001CA4AC2F8B6
:10121000041306E0C649096821F40001C64AC2F871
:101220000413704738B1C249096841F48001C24AC9
:10123000C2F8041306E0BE49096821F48001BE4AE1
:10124000C2F804137047F0B504460D460020002193
:10125000092D11DDE068A5F10A0606EB4607072611
:1012600006FA07F18843A5F10A0606EB460603FADB
:1012700006F10843E0600CE0206905EB450707260E
:1012800006FA07F1884305EB450603FA06F1084321
:101290002061072A0FDA606B561E06EB86071F26B1
:1012A00006FA07F18843561E06EB860605FA06F194
:1012B0000843606322E00D2A0FDA206BD61F06EB8D
:1012C00086071F2606FA07F18843D61F06EB860617
:1012D00005FA06F10843206310E0E06AA2F10D066A
:1012E00006EB86071F2606FA07F18843A2F10D06D2
:1012F00006EB860605FA06F10843E062F0BD816858
:1013000041F0804181607047014600208A6802F008
:1013100080420AB1012000E00020704721B18268BC
:1013200042F48062826003E0826822F4806282601C
:10133000704721B1826842F00202826003E0826855
:1013400022F002028260704710B50A460021002395
:10135000416821F46041531E41EA4331416010BDB0
:1013600021B1426842F40062426003E0426822F424
:101370000062426070470146C86C80B270476C489A
:10138000001D0068704721B1826842F4807282605B
:1013900003E0826822F480728260704721B1826823
:1013A00042F40072826003E0826822F4007282607C
:1013B000704738B15E49096841F400515E4AC2F88D
:1013C000041306E05A49096821F400515A4AC2F848
:1013D00004137047F0B5044615460020002200268D
:1013E000092911DDE068A1F10A0707EB470C07277F
:1013F00007FA0CF29043A1F10A0707EB470703FA3B
:1014000007F21043E0600CE0206901EB410C072774
:1014100007FA0CF2904301EB410703FA07F210437D
:101420002061A06BC0F30156EF1C06F1010CA7EB85
:101430000C0707EB870C1F2707FA0CF29043EF1CF1
:1014400006F1010CA7EB0C0707EB870701FA07F27F
:101450001043A063F0BD10B50A4600210023816B44
:1014600021F44011531E41EA0351816310BD08B5B8
:10147000002300930090009B0B440093009B1A6094
:1014800008BD0A460021816821F470211143816062
:1014900070470A460021816821F4401111438160A0
:1014A0007047816841F480018160704701460020E7
:1014B0008A6802F480020AB1012000E0002070472F
:1014C00021B1426842F48062426003E0426822F443
:1014D00080624260704721B1426842F480524260AB
:1014E00003E0426822F480524260704708B5024629
:1014F00000200090009201F12800009B1844009009
:101500000098006880B208BD10B50B460021D9B222
:10151000012404FA01F11AB144680C43446002E06A
:1015200044688C43446010BDFFFEFFFCFDF7FFC024
:1015300004230140E030FCFF00200140FFFD3FFF9D
:101540000246002013680B400BB1012000E0002090
:101550007047CA430260704770B5024600200023FE
:1015600000240B12556801268E4005EA0604156812
:101570001D4015B10CB1012000E0002070BD00221B
:101580000A12D34303607047016821F00101016032
:101590000021016041608160C160016121214161E0
:1015A000DB49884204D13D21D94A103A91608CE050
:1015B000D7491831884205D14FF47461D44A103AA2
:1015C000916082E0D2493031884205D14FF47411E4
:1015D000CF4A103A916078E0CD494831884205D130
:1015E0004FF07461CA4A103A91606EE0C8496031A8
:1015F000884204D1C749C64A103AD16065E0C4495F
:101600007831884204D1C449C14A103AD1605CE0C3
:10161000BF499031884204D1C049BD4A103AD160D7
:1016200053E0BB49A831884205D14FF03D51B84A3B
:10163000103AD16049E0BA49884204D13D21B84A04
:10164000083A116041E0B6491831884205D14FF49B
:101650007461B34A083A116037E0B14930318842C9
:1016600005D14FF47411AE4A083A11602DE0AC492F
:101670004831884205D14FF07461A94A083A116097
:1016800023E0A7496031884204D1A249A44A121F2D
:1016900011601AE0A2497831884204D19E49A04ADB
:1016A000121F116011E09E499031884204D19B497C
:1016B0009B4A121F116008E09949A831884204D161
:1016C0004FF03D51964A121F1160704710B500222D
:1016D0000268944B1A40CC680B6823434C6923433F
:1016E0008C692343CC6923430C6A23434C6A23430C
:1016F0008C6A23434C6B23438C6B23431A43026055
:10170000426922F00702D1E90B3423431A434261B4
:101710000B6943604B6883608B68C36010BD002118
:10172000016041608160C160016141618161C161AD
:10173000016241628162C1620163416381637047FA
:1017400021B1026842F00102026003E0026822F067
:1017500001020260704721B1026842F40042026057
:1017600003E0026822F400420260704721B102687F
:1017700042F02002026003E0026822F020020260D0
:101780007047416070470146486880B2704722B197
:10179000036843F40023036003E0036823F4002399
:1017A00003600161704721B1026842F48022026047
:1017B00003E0026822F48022026070470AB10161EE
:1017C00000E0C1607047014600200A6802F4002270
:1017D0000AB1012000E000207047014600200A689D
:1017E00002F001020AB1012000E00020704701462A
:1017F00000204A6902F03800704730B503460A46B7
:1018000000200024464DAB4202D24149103901E08C
:101810004349103902F000550DB14C6800E00C68E6
:10182000414D2C4004EA02050DB1012000E00020EA
:1018300030BD02463A4B9A4202D23548103801E098
:101840003748103801F000531BB1374B0B40C360D1
:1018500002E0354B0B408360704710B501F0800308
:101860004BB122B1436943F08003436103E0436914
:1018700023F08003436180290BD02AB1036801F073
:101880001E042343036004E0036801F01E04A34325
:10189000036010BD70B50246002000240025204ED4
:1018A000B24202D21A4B103B01E01D4B103B1F4EBF
:1018B0000E4036B11E2606EAD124166806EA040553
:1018C00002E0566906F0800501F000560EB15C6832
:1018D00000E01C68144E344004EA010616B10DB154
:1018E000012000E0002070BD02460D4B9A4202D25A
:1018F0000748103801E00A48103801F000531BB1C6
:10190000094B0B40C36002E0074B0B4083607047FC
:10191000106002403D000020400F002000003D20EC
:10192000106402403F801CF07D0F7D0F3C0F3C0F88
:1019300010B50446FE48844208D10121084601F052
:1019400054F90021012001F050F99DE0B4F1804FDD
:1019500008D10121084601F037F90021012001F0EA
:1019600033F991E0F348844208D10121022001F0CB
:101970002BF90021022001F027F985E0EE4884428E
:1019800008D10121042001F01FF90021042001F0F9
:101990001BF979E0E948844208D10121082001F0CF
:1019A00013F90021082001F00FF96DE0E4488442AA
:1019B00008D10121102001F007F90021102001F0C9
:1019C00003F961E0DF48844208D10121202001F0C1
:1019D000FBF80021202001F0F7F855E0DA488442B6
:1019E00008D10121022001F000F90021022001F0BC
:1019F000FCF849E0D548844209D10121080401F0EE
:101A0000F4F800214FF4803001F0EFF83CE0D048CA
:101A1000844209D10121480401F0E7F800214FF484
:101A2000003001F0E2F82FE0CA48844209D10121D8
:101A3000880401F0DAF800214FF4802001F0D5F895
:101A400022E0C548844208D10121402001F0BCF8C1
:101A50000021402001F0B8F816E0C048844208D1C7
:101A60000121802001F0B0F80021802001F0ACF8C5
:101A70000AE0BB48844207D10121801501F0A4F897
:101A80000021A01501F0A0F810BD00220288A84B8B
:101A900098420ED0AC4B98420BD0B0F1804F08D09A
:101AA000A44B984205D0A44B984202D0A34B984235
:101AB00004D14FF68F731A404B881A43A04B9842BB
:101AC00007D0A04B984204D04FF6FF431A400B8931
:101AD0001A4302804B68C3620B880385944B98427B
:101AE00002D0994B984201D18B7A038601238382DD
:101AF00070474FF0FF31416000210180018141803A
:101B0000817270470185828270470A4600210188F0
:101B10004FF68F731940114301807047416270473F
:101B2000C16270470146486A70470146088D704798
:101B300021B1028842F00202028004E002884FF6DE
:101B4000FD731A400280704721B1028842F00402FE
:101B5000028004E002884FF6FB731A40028070474F
:101B600021B1028842F08002028004E002884FF630
:101B70007F731A400280704702884FF6F7731A404D
:101B8000028002880A430280704702884FF6FF43B2
:101B90001A40028002880A430280704721B10288FD
:101BA00042F00102028004E002884FF6FE731A4000
:101BB0000280704770B5002400220023058C4FF688
:101BC000FE7635400584028C8388048B4FF68F7532
:101BD0002C40B51E2C400D882C43751E2A408D8943
:101BE0002A434D882A43524DA84202D0564DA8425E
:101BF00013D14FF6F7752A40CD892A434FF6FB756E
:101C00002A408D882A434FF6FF652B404FF6FF553B
:101C10002B400D8A2B434D8A2B43838004838D6890
:101C20004563028470BD70B5002400220023058C3A
:101C30004FF6EF7635400584028C8388048B48F696
:101C4000FF752C404FF6FF452C400D884FF6FF7670
:101C500006EA05252C434FF6DF752A408D8906EAF2
:101C600005152A434D8806EA05152A43304DA8423A
:101C700002D0354DA8421DD14FF67F752A40CD893F
:101C80004FF6FF7606EA05152A434FF6BF752A4040
:101C90008D8806EA05152A434FF6FF352B404FF293
:101CA000FF752B400D8A06EA85052B434D8A06EA0F
:101CB00085052B43838004838D688563028470BD12
:101CC00070B5002400220023058C4FF6FF663540D6
:101CD0000584028C8388848B4FF68F752C404FF6D9
:101CE000FC752C400D882C434FF6FF552A408D89FA
:101CF0004FF6FF7606EA05252A434D8806EA0525B4
:101D00002A430B4DA84202D00F4DA84238D14FF2C2
:101D1000FF752A40CD894FF6FF7606EA05252A434E
:101D20004FF6FF352A408D8806EA05252A4319E03B
:101D3000000001400004004000080040000C00408A
:101D40000010004000140040000401400040014029
:101D5000004401400048014000180040001C0040C1
:101D6000002000404EF6FF752B404DF6FF752B40CE
:101D70000D8A06EA05152B434D8A06EA05152B4305
:101D8000838084838D68C563028470BD70B5002232
:101D900000230024058C4EF6FF7635400584038C25
:101DA0008488828B48F6FF752A404FF6FF452A400B
:101DB0000D884FF6FF7606EA05252A434DF6FF7596
:101DC0002B408D8906EA05352B434D8806EA0535FB
:101DD0002B43FE4DA84202D0FD4DA84208D14BF640
:101DE000FF752C400D8A4FF6FF7606EA85152C43C9
:101DF000848082838D680564038470BD0021018026
:101E00004180818081608181C181018241827047EE
:101E100070B50346002000241846183001258D4077
:101E2000ACB21D8CA5431D8409B108290AD100EB71
:101E3000610005684FF68F763540056005681543EB
:101E400005600FE00D1FC5F34E052844056848F6F0
:101E5000FF763540056005684FF6FF7606EA0226F4
:101E60003543056070BD4163704781637047C1634E
:101E70007047016470470A460021018B4FF68F734B
:101E800019401143018370470A460021018B48F62F
:101E9000FF7319404FF6FF7303EA022319430183CE
:101EA00070470A460021818B4FF68F73194011430A
:101EB000818370470A460021818B48F6FF731940E1
:101EC0004FF6FF7303EA02231943818370470A46E2
:101ED0000021018B4FF6F7731940114301837047BE
:101EE0000A460021018B4FF2FF7319404FF6FF7332
:101EF00003EA02231943018370470A460021818BBC
:101F00004FF6F77319401143818370470A46002149
:101F1000818B4FF2FF7319404FF6FF7303EA0223E0
:101F20001943818370470A460021018B4FF6FB73EA
:101F300019401143018370470A460021018B4FF677
:101F4000FF3319404FF6FF7303EA0223194301835D
:101F500070470A460021818B4FF6FB7319401143ED
:101F6000818370470A460021818B4FF6FF33194069
:101F70004FF6FF7303EA02231943818370470A4631
:101F80000021018B4FF67F73194011430183704785
:101F90000A460021018BC1F30E014FF6FF7303EADD
:101FA00002231943018370470A460021818B4FF6B3
:101FB0007F7319401143818370470A460021818B4A
:101FC000C1F30E014FF6FF7303EA02231943818325
:101FD00070470A460021018C4FF6FD7319401143EA
:101FE000018470470A460021018C4FF6F7731940AF
:101FF0001143018470470A460021018C4FF6DF73BC
:1020000019404FF6FF7303EA021319430184704726
:102010000A460021018C4FF67F7319404FF6FF737B
:1020200003EA02131943018470470A460021018C18
:102030004FF6FF5319404FF6FF7303EA022319438B
:10204000018470470A460021018C4FF2FF7319404A
:102050004FF6FF7303EA02231943018470470A46CF
:102060000021018C4DF6FF7319404FF6FF7303EA10
:10207000023319430184704730B5002301248C409A
:10208000A3B2048C9C430484048C02FA01F5ADB223
:102090002C43048430BD30B5002304248C40A3B20B
:1020A000048C9C430484048C02FA01F5ADB22C43E9
:1020B000048430BD828B4FF2FF331A408283828BBF
:1020C0004FF6FF7303EA01231A4382837047F0B58A
:1020D0000C461546002100220026078C4EF6FF7C98
:1020E00007EA0C070784818B028C4FF6FF7707EA1B
:1020F000043640F6FF4739404FF6FF7707EA0527D9
:1021000039434FF6FF7707EA0337394345F6FF7740
:102110003A4046F480573A4381830284F0BD828B73
:102120004FF6F3731A408283828B0A43828370478F
:10213000F0B50C461546002100220026078C4FF60C
:10214000FF6C07EA0C070784818B028C4FF6FF7740
:1021500007EA04264FF60C7739404FF6FF7707EA77
:1021600003172F4339434FF2FF573A4046F4807725
:102170003A4381830284F0BD028B4FF2FF331A4051
:102180000283028B4FF6FF7303EA01231A43028393
:102190007047F0B50C461546002100220026078C3A
:1021A0004FF6EF7C07EA0C070784018B028C4FF691
:1021B000FF7707EA041640F6FF4739404FF6FF77EE
:1021C00007EA033739434FF6FF7703E00000014089
:1021D0000004014007EA052739434FF65F773A408C
:1021E00046F010073A4301830284F0BD028B4FF69C
:1021F000F3731A400283028B0A4302837047F0B5DF
:102200000C46154600210022068C4FF6FE773E4014
:102210000684018B028C4FF60C7631407E1C06EA58
:1022200003162E4331434FF6F576324044F0010653
:10223000324301830284F0BD70B505460C46208808
:1022400050B92389A28861882846FFF7D8FFE18822
:102250002846FFF7CBFF25E0208804280AD12389F0
:10226000A28861882846FFF794FFE1882846FFF797
:1022700083FF17E0208808280AD12389A288618873
:102280002846FFF755FFE1882846FFF748FF09E099
:102290002389A28861882846FFF719FFE18828462C
:1022A000FFF708FF70BD002101804180012181807E
:1022B0000021C180018170472DE9F04105460C469F
:1022C00000260127608808B9022600E00026A088C1
:1022D000012801D1022700E001272088A0B9238925
:1022E000A28861882846FFF78AFFE1882846FFF721
:1022F0007DFF23893A4631462846FFF74AFFE188A9
:102300002846FFF739FF13E02389A2886188284611
:10231000FFF73FFFE1882846FFF72EFF23893A4663
:1023200031462846FFF76BFFE1882846FFF75EFF3E
:10233000BDE8F0810146486B70470146886B7047E5
:102340000146C86B70470146086C70470A884B8885
:102350001A438B881A43CB881A430B891A434B893B
:102360001A438B891A43A0F844207047002101804A
:1023700041808180C180018141818181704731B17B
:10238000B0F8442042F40042A0F8442005E0B0F840
:102390004420C2F30E02A0F84420704721B1828885
:1023A00042F00402828004E082884FF6FB731A40F8
:1023B0008280704721B1828842F00102828004E06D
:1023C00082884FF6FE731A40828070471AB1838963
:1023D0000B43838102E083898B4383817047818231
:1023E000704702460020138A0B400BB1012000E029
:1023F00000207047CA430282704730B50246002071
:1024000000230024158A05EA0103958905EA0104E1
:1024100013B10CB1012000E0002030BDCA4302829C
:10242000704741EA0203A0F8483070471AB1838927
:102430000B43838102E083898B438381704721B101
:10244000828842F00802828004E082884FF6F773A7
:102450001A408280704701894FF6F872114001815D
:1024600070470A46002101894FF68F7319401143C6
:102470000181704730B504460D4629462046FFF7D6
:10248000F0FF208940F00700208130BD2DE9F041A8
:1024900004460D4616461F46602D06D13B460122D6
:1024A00031462046FFF775FE05E03B4601223146E6
:1024B0002046FFF7A4FE29462046FFF7D2FF2089D9
:1024C00040F007002081BDE8F08130B50C460021C6
:1024D0000189C9B24FF6FF7505EA03251543254367
:1024E0002943018130BD2DE9F04105460E461746CE
:1024F0009846002443463A4631462846FFF7E5FF12
:102500002C894FF6F870044044F007044FF68F70A2
:10251000044044F070042C81BDE8F081F0B504461D
:102520000D4616461F463B46324629462046FFF7D3
:10253000CCFF208940F480402081F0BD82884FF696
:102540008F731A40828082880A4382807047028992
:102550004FF6F8731A40028102890A4302817047DC
:1025600002894FF67F731A40028102890A43028171
:102570007047F0B50C4615461E4600210022002388
:102580000189028B038C4FF6F877394021434FF6CF
:10259000FC473A4040F201173A434FF6DD773B40A3
:1025A0004FF6FF7707EA06172F433B43018102836B
:1025B0000384F0BD21B1828842F08002828004E071
:1025C00082884FF67F731A4082807047A0F85010BF
:1025D0007047000010B504466FF00400FEF710FAD3
:1025E000E11704EB5171C1F3C701394A117010466C
:1025F000007800EB4001C1EBC0104FF6FF7101EA1B
:10260000C0003449088010BD0146314A12784A435F
:102610004FF0E0235A6100229A611A46126942F093
:1026200001021A6100BF4FF0E022106900F00102C0
:102630001AB100F48032002AF5D04FF0E02212697E
:1026400022F001024FF0E0231A6100229A617047E4
:102650000146204A12884A434FF0E0235A61002283
:102660009A611A46126942F001021A6100BF4FF0E6
:10267000E022106900F001021AB100F48032002A51
:10268000F5D04FF0E022126922F001024FF0E02372
:102690001A6100229A61704770B504464FF40770C2
:1026A00094FBF0F0C6B24FF4077094FBF0F100FB1E
:1026B000114085B205E04FF40770FFF7C9FF701EA7
:1026C000C6B2002EF7D115B12846FFF7C1FF70BD85
:1026D0004400002046000020F948006840F0010056
:1026E000F74908600020F64908310860F44800689E
:1026F000F4490840F2490860F348091D0860F348AE
:10270000EF4984310860F0481038091D0860EC4832
:10271000006820F48020EA4908600020E8490C3174
:102720000860E7498C31086070470021E44A921C38
:10273000117011460870704710B501460022002341
:1027400000204A11012A02D1DD4C236808E0022A48
:1027500003D1DB4C7034236802E0D94C7434236815
:1027600001F01F02012494401C400CB1012000E044
:10277000002010BD38B5002000900024002500BFC7
:102780003120FFF7D9FF05460098401C00900098C3
:10279000B0F5A04F01D0002DF2D03120FFF7CCFFD3
:1027A00008B1012400E00024204638BD0146002085
:1027B000C34A106820F0F80040EAC100106070477A
:1027C000C349086070470021BD4A70321170117012
:1027D000012802D004280AD104E00121B84A70324D
:1027E000117005E00521B64A7032117000E000BF9B
:1027F00000BF7047B7490860704770B5049C41EA54
:1028000082150126C6EB530645EA0645054345EA0F
:102810000465AB4E361D356070BDAD490866704726
:10282000820142EA0172A64B84331A607047A849BC
:102830008866704710B5830143EA016343EA027377
:102840009F4C8834236010BDA14908677047A04998
:10285000C864704702460020994B0833186820F07E
:10286000EC6042EA01031843954B08331860704747
:1028700002460020924B0833186820F0784042EA64
:10288000010318438E4B083318607047014600203F
:102890008B4A0832106820F003000843106070472C
:1028A00087480830006800F00C007047014600209F
:1028B000834A0832106820F0F00008431060704727
:1028C000014600207E4A0832106820F4E050084398
:1028D0001060704701460020794A0832106820F4E1
:1028E000604040EAC10010607047F0B5002100224E
:1028F0000024022500260223714F08373F6807F0A5
:102900000C0121B1042905D0082937D105E0724F07
:10291000076036E0714F076033E0694F3F1D3F6845
:10292000C7F38056664F3F1D3F6807F03F036EB107
:102930006A4FB7FBF3F7DFF888C10CF1040CDCF841
:1029400000C0CCF3881C07FB0CF40CE0624FB7FB13
:10295000F3F7DFF86CC10CF1040CDCF800C0CCF329
:10296000881C07FB0CF4564F3F1D3F68C7F3014717
:102970007F1C7D00B4FBF5F7076002E0564F07604F
:1029800000BF00BF4E4F08373F6807F0F00109094C
:10299000534F7A5C0768D7404760494F08373F6814
:1029A00007F4E051890A4E4F7A5C4768D740876048
:1029B000434F08373F6807F46041490B484F7A5C42
:1029C0004768D740C760F0BD002100F44072B2F5FF
:1029D000407F0AD13A4A0832116821F4F811414A7D
:1029E00002401143364A08321160354A703212688B
:1029F000C0F30B031A43324B70331A6070473549EA
:102A00004439086070473349403908607047364997
:102A10000860704701460020294A8C32106820F077
:102A20001F004A1E1043264A8C3210607047014630
:102A30000020234A8C32106820F4F8504A1E40EAE5
:102A400002201F4A8C3210607047014600201C4A49
:102A50008C32106820F44010084310607047014623
:102A60000020174A8C32106820F4400008431060A0
:102A7000704701460020124A8C32106820F4403022
:102A800008431060704719490860704739B10C4A13
:102A90003032126802430A4B30331A6006E0084AAB
:102AA000303212688243064B30331A607047F9B1F6
:102AB000034A343212680243014B34331A601CE07B
:102AC00000380240FFFFF6EA1030002400300020FA
:102AD00000004742800E47420024F40000127A00B2
:102AE00048000020FFFCFF0F5C014742E011474215
:102AF0008F4A126882438E4B1A60704739B18C4AF4
:102B0000121D126802438A4B1B1D1A6006E0884A98
:102B1000121D12688243864B1B1D1A60704739B123
:102B2000834A0C3212680243814B0C331A6006E070
:102B30007F4A0C32126882437D4B0C331A60704717
:102B400039B17B4A103212680243794B10331A6054
:102B500006E0774A103212688243754B10331A60D0
:102B6000704739B1724A243A12680243704B243BD1
:102B70001A6006E06E4A243A126882436C4B243B8A
:102B80001A60704739B16A4A203A12680243684BAA
:102B9000203B1A6006E0664A203A12688243644B82
:102BA000203B1A60704739B1614A1C3A12680243EF
:102BB0005F4B1C3B1A6006E05D4A1C3A1268824378
:102BC0005B4B1C3B1A60704739B1594A143A126882
:102BD0000243574B143B1A6006E0554A143A1268F8
:102BE0008243534B143B1A60704739B1504A103A34
:102BF000126802434E4B103B1A6006E04C4A103AF2
:102C0000126882434A4B103B1A60704739B1484AF8
:102C10001C3212680243464B1C331A6006E0444AD9
:102C20001C3212688243424B1C331A60704739B120
:102C30003F4A2032126802433D4B20331A6006E0BF
:102C40003B4A203212688243394B20331A60704766
:102C500039B1374A243212680243354B24331A60A3
:102C600006E0334A243212688243314B24331A601F
:102C7000704739B12E4A2C32126802432C4B2C3348
:102C80001A6006E02A4A2C3212688243284B2C3301
:102C90001A60704739B1264A303212680243244B19
:102CA00030331A6006E0224A303212688243204BE9
:102CB00030331A607047012808D11D493C3109683A
:102CC00041F008011A4A3C32116007E018493C31D2
:102CD000096821F00801164A3C321160704739B189
:102CE000134A273A12780243114B273B1A7006E029
:102CF0000F4A273A127882430D4B273B1A707047D0
:102D00000B484030006840F080700949403108604D
:102D1000704701460020064A283A12680A400AB164
:102D2000012000E0002070470149263908707047F3
:102D30003438024000BF704700BF4C4A128802F08E
:102D40004002002AF9D0C2B2484B9A80704710B5B1
:102D500088B0044601210846FFF798FE01211020A3
:102D6000FFF7EEFE072209214148FDF778FF072211
:102D70000A213F48FDF773FF4FF4C0600690022020
:102D80008DF81C008DF81D0000208DF81E0001201C
:102D90008DF81F0006A93648FDF7D6FE02940020E4
:102DA000ADF80C00ADF80E00ADF81000ADF8140051
:102DB0000C20ADF8120002A92C48FDF7F0FF01210C
:102DC0002A48FEF774F8012240F225512748FEF701
:102DD00024F925208DF8040000208DF805008DF8D9
:102DE000060001208DF8070001A8FDF7BCFD08B022
:102DF00010BD10B540F225511C48FEF749F910B33B
:102E00001A48FEF783F8C4B21A48008800F400405C
:102E1000C8B91848008800F4804060B10A2C03D07B
:102E200000201449088020E01248008840F4004047
:102E30001049088019E00D2C06D10E48008840F496
:102E400080400C49088010E00A480088C0F30D005B
:102E500009490C5407480088401C06490880084668
:102E60000088C72801DD0020088010BD0010014047
:102E7000000002405C000020588F00201CB501219A
:102E80000846FFF703FE03208DF8040000208DF8AC
:102E900006008020009000208DF8070002208DF8A9
:102EA000050069463A48FDF74FFE1CBD00B58BB0E2
:102EB000FEF738F901210802FFF742FE01208DF8E4
:102EC000190000200990079001208DF828000020AB
:102ED00005908DF818000723012219462D48FEF7AA
:102EE000B2F905A92B48FEF728F9002001904FF40C
:102EF0008030029001A8FEF74FF901212548FEF726
:102F000042FA01212348FEF75EF90BB000BD00B57F
:102F10008FB000212048FEF713FC00BF1E48FEF7CB
:102F20005CFC0028FAD101218805FFF7AFFD4FF4C2
:102F3000806004900020009003900B9003200C9080
:102F40001648029000200D904FF400600890401049
:102F50000690801009900F484C30019000200E9090
:102F60004FF400600790002005904FF440300A9025
:102F700069460948FEF7AAFB01210748FEF7E0FB76
:102F80000FB000BD10B50348FEF7B9F910BD000041
:102F90000000024000200140106402402090002008
:102FA00000B589B001210820FFF7B9FD01210846CD
:102FB000FFF76CFD0120079002208DF82000032010
:102FC0008DF8210000208DF8220002208DF82300CA
:102FD00007A99B48FDF7B8FD022200219848FDF79C
:102FE0003EFE5320ADF810000020ADF81200401E48
:102FF00005900020ADF8180004A99248FEF745FDA1
:103000000020ADF80400ADF806000120ADF808007E
:103010000020ADF80A00ADF80C0001A98948FFF7BF
:103020000BF9012202218748FFF7D0F901218548D9
:10303000FEF7B4FD32208DF8000002208DF801006B
:1030400000208DF8020001208DF803006846FDF78E
:103050008AFC09B000BD10B52DED068B0221794820
:10306000FFF7DCF977483430006877490860774823
:103070000078FF2837D1002202217248FFF7A6F915
:10308000714800687249086008460068714909681B
:10309000401A7149086000206A49243108606E486E
:1030A000006801F066F941EC1A0B9FED6C0B53ECD4
:1030B000102B01F07DF841EC190B53EC192B9FED0F
:1030C000690B51EC100B01F0E5F841EC180B01F025
:1030D00089F966490860012065490870FFF7E6FE36
:1030E000FFF750FF06E0584800685A490860002082
:1030F0005F49087055480078C04354490870BDECDA
:10310000068B10BD70B58AB004460D460121080437
:10311000FFF716FD01211020FFF7B8FC032205215F
:103120005448FDF79CFD2020089002208DF82400D3
:1031300003208DF8250000208DF8260008A94D48B1
:10314000FDF702FDADF814500020ADF8160006940E
:10315000ADF81C0005A94848FEF797FC6020ADF8C3
:1031600000000120ADF802000220ADF80C00694615
:103170004148FEF71FFD08213F48FEF7A8FE012148
:103180003D48FEF7EDFC01213B48FEF707FD2646D2
:1031900004EBD67041103848FEF765FE0AB070BDEA
:1031A00070B58AB004460D4601210802FFF7B7FC4E
:1031B00001212020FFF76AFC092211462F48FDF764
:1031C0004EFD4FF40070089002208DF8240003207B
:1031D0008DF8250000208DF8260008A92748FDF766
:1031E000B3FCADF814500020ADF816000694ADF80D
:1031F0001C0005A92248FEF748FC6020ADF800003D
:103200000120ADF802000220ADF80C0069461C4810
:10321000FEF7D0FC08211A48FEF759FE0121184894
:10322000FEF79EFC01211648FEF7B8FC264604EB8B
:10323000D67041101248FEF716FE0AB070BD0000AD
:1032400000000240000C00406C00002060000020E4
:103250006800002064000020700000208DEDB5A003
:10326000F7C6B03E000000000000F03F74000020F0
:1032700061000020001002400040014000140240A4
:10328000002000409FED3D0A5FEA920C57D000BF3E
:10329000D0ED000A90ED011A0B1D60EEA00A083077
:1032A00041EE010AF5EEC00AF1EE10FAA6BFB1EE4A
:1032B000E01A81ED001A81ED000AD0ED000A90EDD0
:1032C000011A191D60EEA00A083041EE010AF5EE60
:1032D000C00AF1EE10FAA6BFB1EEE01A83ED001AB3
:1032E00083ED000AD0ED000A90ED011A0B1D60EE8F
:1032F000A00A083041EE010AF5EEC00AF1EE10FA1C
:10330000A6BFB1EEE01A81ED001A81ED000A90ED42
:10331000001AD0ED010A191D21EE011A083000EE45
:10332000A01AB5EEC01AF1EE10FAA6BFF1EEC10A6E
:10333000C3ED000A83ED000ABCF1010CA8D112F024
:10334000030208BF704700BFD0ED000A90ED011ADC
:103350000B4660EEA00A091D083041EE010AF5EEA9
:10336000C00AF1EE10FAA6BFB1EEE01A83ED001A22
:1033700083ED000A521EE7D17047000000000000F4
:1033800010B4284C89B2C460016004F58044046123
:1033900002714FF0000C4371B1F5007F2BD009DCB6
:1033A000202939D0402932D080292CD0B1F5807F16
:1033B00025D00BE0B1F5806F19D0B1F5006F12D0B8
:1033C000B1F5805F0BD0B1F5005F04D04FF0FF3C4A
:1033D00010BC604670470121816013491AE0022148
:1033E0008160124916E004218160114912E0082130
:1033F000816010490EE0102181600F490AE0202110
:1034000081600E4906E0402181600D4902E0802183
:1034100081600C494161DBE74FF4807181600A49AA
:103420004161D5E7CA5000084CD100083CD10008E2
:103430002CD100081CD100080CD10008FCD00008D9
:10344000ECD00008DCD00008CCD000082DE9FF4FFC
:10345000DDE90DEC00980199051D00EB810002EB00
:103460008C0403EB8C06031F0EEBC101019A091FAC
:103470000EF10400521E21D055F8048BD4F800B090
:1034800048FB0BFA53F80479D6F8009027FB09AAF9
:103490004FEA1A4A47FB19F728FB1B7720F802ABC3
:1034A0003F1420F8027B21F802AB7F4221F8067915
:1034B00006EB8C0604EB8C04521EDDD10098B0F9AB
:1034C0000010B0F90200081A411001982EF82010DF
:1034D000019900200EEB810148800099B1F900208C
:1034E000B1F9021011444910AEF80010AEF8020014
:1034F00004B0BDE8F08F2DE9F00700EB8104DDE9B1
:1035000007C6002904BFBDE8F007704754F804A9B6
:10351000D3F800904AFB09F750F8048B156828FB94
:1035200005773F0C2AFB19F9C9F1000945FB1895ED
:103530006FF30F05C7EA05054CF8045B03EB860340
:1035400002EB8602491EE1D1BDE8F00770472DE984
:10355000F74F82B00E4602990298096840694F08F9
:1035600002990A79012A5CD04B79314600F0CEF9F4
:10357000CDE900670298029ADDF810E0D0E9031067
:10358000926806F1040C00EB820401EB820506EB65
:103590008700061F0EEBC701091F0EF104007B1EFA
:1035A00022D000BF5CF8048BD5F800B048FB0BFAC2
:1035B00056F80479D4F8009027FB09AA4FEA1A4A72
:1035C00047FB19F728FB1B7720F802AB3F1420F8C4
:1035D000027B21F802AB7F4221F8067904EB8204DA
:1035E00005EB82055B1EDDD10098B0F90010B0F943
:1035F0000200081A411001982EF8201001990020AD
:103600000EEB810148800099B1F90020B1F9021058
:1036100011444910AEF80010AEF8020005B0BDE844
:10362000F08FD1E903C3049A8C6806EB8701FFB1E0
:1036300051F80499D3F8008049FB08FA56F8045B66
:10364000DCF800B025FB0BAA4FEA1A4A29FB18F850
:10365000C8F100084BFB15856FF30F05CAEA050595
:1036600042F8045B03EB84030CEB840C7F1EDFD178
:1036700002994B790A79049900F048F90298016897
:10368000002904BF05B0BDE8F08F0498801E11F03A
:10369000010F03D030F8021F490001800299096828
:1036A000490804BF05B0BDE8F08F00BF30F8022F15
:1036B000520020F8022B028852000280491EF5D1E8
:1036C00005B0BDE8F08F00009FED391A10B4B0EEE0
:1036D000410A5FEA910C1ED0BCF1004F4CD2BCF104
:1036E000000FC4BF0346644615DD00BFD3ED000ADA
:1036F00000EEA00AD3ED010A00EEA00AD3ED020A03
:1037000000EEA00AD3ED030A1033641E00EEA00AF7
:10371000ECD100EB0C1011F003031AD0B3F1004F01
:103720003FD2002B15DD001F13F0010F04D0D0EDA8
:10373000010A001D00EEA00A5B080AD0D0ED010AC4
:1037400000EEA00AD0ED020A08305B1E00EEA00ACF
:10375000F4D100EE901AF8EE601AC0EE210AF5EEF0
:10376000C00AF1EE10FAA6BFB1EEE00A82ED000A3F
:1037700082ED001A10BC7047D0ED000A00EEA00ADE
:10378000D0ED010A00EEA00AD0ED020A00EEA00A78
:10379000D0ED030A1030BCF1010C00EEA00AEBD111
:1037A000B9E7F0EC010A5B1E00EEA00AF9D1D0E700
:1037B000000000002DE9F74F07468A4607EB4A064E
:1037C00002985FEA51083C46B146454618BF4FF0A3
:1037D000000B18D050F8042B216891FA2BF33168B4
:1037E00091FA2BFCD3FA1CF193FA2CF344F8043B26
:1037F00022FB01F31B0C42FB11F1C3EA010146F865
:10380000041B6D1EE6D1022341463846029A00F0A1
:1038100075F9484602234146029A00F06FF95FEAC3
:103820005A0004BF03B0BDE8F08F00BF37F8020BA9
:10383000420037F8020B410037F8040B37F8023C1E
:10384000400027F8082C5B0027F8061C27F8040C1A
:1038500027F8023CB8F10108E8D103B0BDE8F08FC9
:103860002DE9F74F07468A4607EB4A0602985FEABA
:1038700051083C46B146454618BF4FF0000B18D0E2
:1038800050F8042B216891FA2BF3316891FA2BFC44
:10389000D3FA1CF193FA2CF344F8043B42FB01F3F6
:1038A0001B0C22FB11F1C3EA010146F8041B6D1E3B
:1038B000E6D1022341463846029A00F049FA4846CA
:1038C00002234146029A00F043FA5FEA5A0004BF1D
:1038D00003B0BDE8F08F00BF37F8020B420037F8A5
:1038E000020B410037F8040B37F8023C400027F880
:1038F000082C5B0027F8061C27F8040C27F8023C6C
:10390000B8F10108E8D103B0BDE8F08F2DE9FF4F11
:10391000078883B00E4681464FF0000A012A0CD07A
:10392000B7F5807F76D078DC102F73D0202F73D03E
:10393000402F7ED0802F6FD0D0E0B7F5807F15D09C
:1039400008DC102F12D0202F18D0402F0ED0802F3F
:1039500014D0C3E0B7F5007F10D0B7F5806F05D065
:10396000B7F5006F0AD0B7F5805F52D10123394611
:103970003046D9F8042000F0EBF9AFE0084606EB3A
:103980004701D9F80420CDE900217D082C4619D043
:1039900052F804CB036893FA2AF80B6893FA2AFBCF
:1039A000D8FA1BF398FA2BF840F8048B4CFB03F879
:1039B0004FEA18482CFB13F3C8EA030341F8043B11
:1039C000641EE5D1022329463046009A00F0C0F972
:1039D000DDE900200223294600F0BAF9780818BF73
:1039E00030467BD030F8021B4A0030F8021B30F81A
:1039F000043B490030F802CC5B0020F8082C20F88A
:103A0000061C4FEA4C0C20F8043C20F802CC6D1E3A
:103A1000E8D163E00DE000E013E0B7F5007F10D0DF
:103A2000B7F5806F05D0B7F5006F0AD0B7F5805FA6
:103A300054D1012339463046D9F8042000F05EF80D
:103A40004CE006EB4700D9F80410CDE900105FEA1E
:103A500057083446454619D051F8043B226892FA7B
:103A60002AFC026892FA2AFBDCFA1BF29CFA2BFC75
:103A700044F804CB23FB02FC4FEA1C4C43FB12F23C
:103A8000CCEA020240F8042B6D1EE5D10223414628
:103A90003046009A00F032F8DDE90020022341466A
:103AA00000F02CF8780818BF304617D030F8021B09
:103AB0004FEA410C30F8021B4B0030F8041B4A005F
:103AC00030F8021C20F808CC490020F8063C20F809
:103AD000042C20F8021CB8F10108E7D10698002850
:103AE00004BF07B0BDE8F08FB9F80C10D9F8082072
:103AF00007B03046BDE8F04FFCF77BBB2DE9FF4F28
:103B000086B04FF0000C0798069A800802EB8001FF
:103B100001EB80050290009005EB8004E6461668F4
:103B200096FA2EF696FA2EF82E6896FA2EF696FA51
:103B30002EF698FA16F7D8FA16F6D1F8008098FA09
:103B40002EF898FA2EF8D4F8009099FA2EF999FAEE
:103B50002EF998FA19F897FA28F942F8049BD7FA3F
:103B600018F7DDF8208008EBCC08D8F8008028FB97
:103B700007F94FEA194948FB17F80F6897FA2EF72B
:103B800097FA2EF7C9EA080841F8048BD4F80080A8
:103B900098FA2EF898FA2EF8D7FA18F8A6FA18F725
:103BA000E6FA18F6DDF8208008EB8C08D8F80080DB
:103BB00028FB06F94FEA194948FB16F6C9EA06063A
:103BC00045F8046B089E0CEB4C0806EB880636683B
:103BD00026FB07F84FEA184846FB17F6C8EA060620
:103BE00044F8046B9C44401E99D1980009900298B7
:103BF000059004287ED90098810800910021049145
:103C000001910099491E0391049A0899079D01EBBF
:103C10008201019CD1F800800899AC4201EBC201FD
:103C200002EB42020F68089901EB8201099AD1F870
:103C30000090049911440491019A069901EB8203C2
:103C40000099009A03EB810101EB820C0CEB8202DC
:103C500045D21D68DCF800A095FA1AF6D5FA1AF5D7
:103C6000D1F800A0D2F800B09AFA1BFA96FA2AFB13
:103C70009BFA2EFBC3F800B003EB8003D6FA2AF6BA
:103C800027FB06FA4FEA1A4A47FB16FB0E68CAEAF8
:103C90000B0AC1F800A0D2F800A001EB8001D6FA0F
:103CA0001AFAA5FA2AF6E5FA2AF528FB05FA4FEAE8
:103CB0001A4A48FB15F5CAEA0505CCF800500CEB8A
:103CC000800C29FB06F52D0C49FB16F6C5EA060506
:103CD0001560079D044402EB8002AC42B9D3019900
:103CE000039A491C019191428ED90998800009904C
:103CF000059800E004E08008059004283FF67BAFBB
:103D0000029B069951F804CB51F8042B51F8044B4F
:103D100008689CFA14F592FA10F695FA26F641F81E
:103D20000C6C92FA10F6D5FA26F541F8085CDCFA2C
:103D300014FCD2FA10F0ECFA20F241F8042CACFAA0
:103D400020F041F8040B5B1EDCD10AB0BDE8F08F17
:103D50002DE9FF4F86B04FF0000C0798069A8008B7
:103D600002EB800101EB80050290009005EB8004DE
:103D7000E646166896FA2EF696FA2EF82E6896FA09
:103D80002EF696FA2EF698FA16F7D8FA16F6D1F815
:103D9000008098FA2EF898FA2EF8D4F8009099FA44
:103DA0002EF999FA2EF998FA19F897FA28F942F8A3
:103DB000049BD7FA18F7DDF8208008EBCC08D8F878
:103DC000008048FB07F94FEA194928FB17F80F68EC
:103DD00097FA2EF797FA2EF7C9EA080841F8048BEC
:103DE000D4F8008098FA2EF898FA2EF8D7FA18F836
:103DF000E6FA18F7A6FA18F6DDF8208008EB8C082A
:103E0000D8F8008048FB06F94FEA194928FB16F656
:103E1000C9EA060645F8046B089E0CEB4C0806EB55
:103E20008806366846FB07F84FEA184826FB17F65F
:103E3000C8EA060644F8046B9C44401E99D19800D9
:103E400009900298059004287ED900988108009175
:103E50000021049101910099491E0391049A089947
:103E6000079D01EB8201019CD1F800800899AC42CA
:103E700001EBC20102EB42020F68089901EB8201DB
:103E8000099AD1F80090049911440491019A069975
:103E900001EB82030099009A03EB810101EB820C94
:103EA0000CEB820245D21D68DCF800A095FA1AF6E8
:103EB000D5FA1AF5D1F800A0D2F800B09AFA1BFA98
:103EC00096FA2AFB9BFA2EFBC3F800B003EB8003A3
:103ED000D6FA2AF647FB06FA4FEA1A4A27FB16FBE0
:103EE0000E68CAEA0B0AC1F800A0D2F800A001EBE4
:103EF0008001D6FA1AFAE5FA2AF6A5FA2AF548FB5D
:103F000005FA4FEA1A4A28FB15F5CAEA0505CCF866
:103F100000500CEB800C49FB06F52D0C29FB16F626
:103F2000C5EA06051560079D044402EB8002AC4219
:103F3000B9D30199039A491C019191428ED90998EC
:103F400080000990059800E004E0800805900428AE
:103F50003FF67BAF029B069951F804CB51F8042B36
:103F600051F8044B08689CFA14F592FA10F695FA89
:103F700026F641F80C6C92FA10F6D5FA26F541F8BF
:103F8000085CDCFA14FCD2FA10F0ACFA20F241F82A
:103F9000042CECFA20F041F8040B5B1EDCD10AB0D3
:103FA000BDE8F08F70B5044680780D462188A3895E
:103FB0006268012828460DD0FFF7A0FDE0780128AF
:103FC00018BF70BDE28921882846A368BDE870400B
:103FD00000F0B1B8FFF7BCFEF0E72DE9F0014E08A4
:103FE00001244FF0000C04EB51076146A6F10208D2
:103FF0002CE061452AD200EBCC0500EBC104D5EDE5
:10400000000A94ED000AC4ED000A85ED000AD5ED22
:10401000010A94ED010AC4ED010A85ED010ACC19EB
:1040200000EBC4050CEB070400EBC40495ED000A9B
:10403000D4ED000AC5ED000A84ED000AD4ED010AB2
:1040400095ED010AC5ED010A84ED010A00EBC104FA
:10405000B44400EBCC0C94ED020ADCED000A891CA0
:10406000C4ED020A8CED000ADCED010A94ED030AAE
:10407000C4ED030A8CED010AB3F800C089B203EB6A
:1040800042034145B5D9BDE8F00170472DE9F0077D
:104090004D0801244FF0000C04EB51066146A5F1D8
:1040A00002082BE0614529D250F8314050F83C70AD
:1040B00040F8317040F83C4000EBC10900EBCC0403
:1040C000D9F80470D4F804A0C9F804A067608C196A
:1040D0000CEB060750F8349050F837A040F834A0A5
:1040E00040F8379000EBC40400EBC707D4F8049005
:1040F000D7F804A0C4F804A0C7F8049000EBC104EA
:10410000AC44A76850F83C90C4F8089040F83C7064
:1041100000EBCC0CE768DCF80490C4F80C90CCF809
:104120000470B3F800C0891C03EB42034145B9D9C0
:10413000BDE8F00770472DE9F00F01244F0804EBAC
:1041400051084FF0000C7C0804BFBDE8F00F704729
:10415000014600EB8805002614E0BCEB460F11D9A0
:1041600050F82CA0D1F80090C1F800A040F82C9095
:104170000CEB0809D5F800A050F829B0C5F800B03C
:1041800040F829A0BC4451F8049F50F82CA041F8F5
:1041900004AB40F82C90B3F800C003EB4203641E5C
:1041A00005F1080506F10106D7D1BDE8F00F70470B
:1041B0002DE9FE4F81EA030404F0004421F00041A0
:1041C00000944FF0000B23F0004350EA01045ED04E
:1041D00052EA03045BD0C3F30A54C1F30A552C44DA
:1041E000A4F2F3340194A0FB0254C1F3130141F48F
:1041F0008011C3F3130343F4801301FB024400FB5B
:10420000034E840A970A44EA815447EA8357A4FB81
:10421000076802958D0A05FB07854FEA932C04FB7E
:104220000C542705029D4FEA065847EA1637B5EBAE
:1042300008056EEB070C870E920E47EA811742EADB
:104240008312A7FB0201B6EB0B0164EB00042B0DFC
:1042500043EA0C335E1844EB1C50DA465146E7FB48
:104260000201C5F313044FEA0B3343EA14534FEA38
:104270000432019C43EA0603A4F10C040294009C5E
:10428000CDE900B400F057F903B0BDE8F08F00208D
:104290000146F9E72DE9F04D81EA030404F0004BF3
:1042A00021F0004514464FF0000A23F0004150EA87
:1042B000050220D054EA01021DD0C5F30A57024678
:1042C000C5F31303C1F31300C1F30A5640F480157C
:1042D00043F48013A7EB0608101BD64608F2FD38FE
:1042E00073EB050002D308F1010801E092185B416D
:1042F000B8F1000F03DA00200146BDE8F08D002080
:104300004FF48011064684460EE0171B73EB050739
:1043100005D3121B63EB050306434CEA010C490865
:104320004FEA300092185B4150EA0107EDD152EAA2
:10433000030012D082EA040083EA0501084305D095
:10434000101BAB4106D20122002306E000224FF0F1
:10435000004302E06FF0010253101AEB06004CEB31
:10436000085110EB0A0041EB0B01BDE8F04D00F0E5
:10437000D3B80EB540F2334102910021CDE90011CE
:104380000A460B4600F0D7F803B000BD00F000422B
:1043900030F000400AD0C10D01F56071C0F3160085
:1043A00042EA0151C208400711437047002001460C
:1043B0007047000030B5041E71F1000404DB4FF0BB
:1043C0000044404264EB0101141E73F1000405DB5C
:1043D0001C464FF00043524263EB0403994208BF6E
:1043E000904230BD01F0004330B421F0004150EA6A
:1043F000010206D00A0DA2F56072C1F31301002A72
:1044000002DC30BC00207047440F44EAC104C10004
:10441000E01830BC00EBC25000F047B830B50B4696
:10442000014600202022012409E021FA02F59D42E4
:1044300005D303FA02F5491B04FA02F52844151EB8
:10444000A2F10102F1DC30BD2DE9F05F054600204C
:1044500092469B4688460646814640241BE02846F5
:1044600041464746224600F094F953465A46C01A40
:10447000914110D311461846224600F07BF92D1ABF
:1044800067EB01084F4622460120002100F072F937
:1044900017EB00094E41201EA4F10104DFDC484661
:1044A00031462A464346BDE8F09F0029A8BF704721
:1044B000401C490008BF20F00100704710B4B0FA5A
:1044C00080FC00FA0CF050EA010404BF10BC7047F5
:1044D00049B1CCF1200421FA04F411FA0CF118BF0F
:1044E000012121430843A3EB0C01CB1D4FEA0061DE
:1044F0004FEA102042BF002010BC704700EBC350B1
:1045000010440029A4BF10BC7047401C490008BFDC
:1045100020F0010010BC704710B5141E73F10004A8
:1045200008DA401C41F1000192185B411A4301D1A5
:1045300020F0010010BD2DE9F04D92469B4611B1CF
:10454000B1FA81F202E0B0FA80F22032904600F037
:1045500011F904460F4640EA0A0041EA0B015346AE
:104560005A46084313D0114653EA010019D0C8F146
:104570004002504600F00DF905460E465046594699
:10458000424600F0F7F8084305D0012004E0204639
:104590003946BDE8F08D0020054346EAE0762C431D
:1045A00037430A986305E40AA0EB08000022FD0ADD
:1045B00044EA47540A3002D500200146E9E70105E4
:1045C00010196941DDE9084500196941BDE8F04D60
:1045D000A2E72DE9FE4F804681EA0300C00F0C469A
:1045E000009021F0004123F00045B8EB0200A94102
:1045F00005D24046214690461C460B46024623F013
:104600000040104347D0270DC7F30A00C3F30A51F7
:104610000290401A019040286BDAC3F3130040F473
:10462000801B0098924620B10023D2EB030A63EB73
:104630000B0B01985946C0F14002504600F09AF821
:1046400006460D4650465946019A00F0B2F810EB66
:1046500008006141002487EA115284EAE7731A4393
:1046600040D0009A62B3019A012A4FEA075215DC42
:10467000001B61EB02014FF0004202EA0752CDE954
:104680000042001C41F5801132462B46FFF753FFD4
:1046900003B0BDE8F08F40462146F9E7001B61EB0F
:1046A0000201001C41F5801300185B412018A2F59F
:1046B000001747EB030140EAD570B6196D4111E0D0
:1046C0006D084FEA360645EAC0754FEA0752001BEF
:1046D00061EB0201001C41F5801149084FEA3000EE
:1046E0000019514132462B4603B0BDE8F04FFFF7A9
:1046F00013BF0098012240000023D0EB020263EBBD
:10470000E073009821464FEAE074B8EB000061EBDB
:104710000401E9E783F000435BE781F0004158E7DB
:10472000C1F30A52C1F3130140F2FF3341F4801187
:104730009A4202DA00200146704740F233439A421F
:10474000A2F2334202DC524200F023B800F012B869
:10475000064C074D06E0E06840F0010394E80700CE
:1047600098471034AC42F6D3FBF772FD246F010872
:10477000446F0108202A04DB203A00FA02F10020ED
:1047800070479140C2F1200320FA03F3194390408F
:104790007047202A04DB203A21FA02F000217047FA
:1047A00021FA02F3D040C2F1200291400843194699
:1047B0007047202A06DBCB17203A41FA02F043EA81
:1047C000E07306E041FA02F3D040C2F120029140CA
:1047D00008431946704700000FB4054B10B503A9F4
:1047E000044A029800F0DAF810BC5DF814FB0000EF
:1047F000392D00085800002002E008C8121F08C127
:10480000002AFAD170477047002001E001C1121F51
:10481000002AFBD1704700002DE9FF5F82B0002124
:10482000DDE90430020DDDF840B0034318D044F652
:104830001050A2F2FF3242431514119801281FD0E4
:10484000A5EB0B00401C5FEA000A4FF000064E4F3C
:10485000DFF83891B046504615D5CAF1000413E090
:10486000119801244AA3012801D16FEA0B01029893
:10487000119AC0E90031C0E9024206B0BDE8F09FDC
:10488000CBF10000DFE704460021404A491842EB23
:104890000450CDE9001012E0E00707D032463B4655
:1048A00040464946FFF784FC8046894632463B46EF
:1048B00010461946FFF77CFC06460F466410002C94
:1048C000EAD1DDE90401DDE90023BAF1000F06DADF
:1048D000FFF76EFC42464B46FFF76AFC05E0FFF728
:1048E000D9FC42464B46FFF7D5FC04460E46002253
:1048F000284BFFF75FFD03D84FF0FF30014607E07C
:104900000022254B20463146FFF763FEFFF708FFE4
:10491000102409E0002C0ADB0A220023FFF794FD93
:10492000039B30321A55641E50EA0102F2D1641C16
:10493000039AC4F111031444119A012A03D00122ED
:1049400008430DD10AE0084304D000204FF0110BBA
:10495000119072E7A3EB0B056D1E0DE05B4504DDC6
:104960004FF0000205F1010504E003DA4FF0000208
:10497000A5F10105002AECD002981199C0E9023195
:10498000C0E9004579E70000000014400000F03F56
:10499000300000000000F0430000E03F2DE9FF4F31
:1049A00095B09B468946064600250FE2252877D11B
:1049B00000242746F84A0121059400E0044316F834
:1049C000013F203B01FA03F01042F7D130782A284A
:1049D00011D06FF02F033078A0F13002092A16D8D9
:1049E000059A44F0020402EB820203EB42021044F7
:1049F000761C0590EFE759F8042B0592002A03DA9C
:104A0000504244F40054059044F00204761C30787F
:104A10002E2816D116F8010F44F004042A280DD0D0
:104A20006FF02F023078A0F13003092B09D807EB83
:104A3000870302EB4303C718761CF3E759F8047B9E
:104A4000761C30786C280FD006DC4C2817D06828EC
:104A50000DD06A2814D104E0742810D07A280FD120
:104A60000DE044F400140AE044F4801401E044F43E
:104A700040147278824202D104F58014761C761CB0
:104A8000307866280BD013DC582877D009DC002852
:104A900075D04528F6D04628F4D047281AD19DE194
:104AA00018E0632835D0642879D0652812D195E1C3
:104AB000702873D008DC6728F1D069286FD06E2881
:104AC0000DD06F2806D1B5E073282CD0752875D08D
:104AD000782874D05A46179990476D1C75E1C4F335
:104AE0000250022809D003280DD0D9F8001004285C
:104AF0000DD00D6009F1040967E1D9F80010EA173B
:104B0000C1E90052F6E7D9F800100D80F2E70D7008
:104B1000F0E719F8041B8DF8001000208DF8010053
:104B2000EA46012003E059F804AB4FF0FF3061077B
:104B30004FF0000102D40DE008F101018846B942AE
:104B40000FDA8045F8DB1AF808100029F4D108E0E4
:104B500008F1010188468142FADB1AF808100029A1
:104B6000F6D105985B46A0EB080721463846179A10
:104B700000F094FA284400EB080507E04DE029E135
:104B80000DE01AF8010B5A4617999047B8F1010841
:104B9000F7D25B4621463846179A13E142E00A22D3
:104BA0000092C4F302524FF0000A022A08D059F8CA
:104BB00004CB032A4FEAEC710AD00DE029E02AE089
:104BC00009F1070121F00702F2E802C1914609E06C
:104BD0000FFA8CFC4FEAEC71042A03D14FFA8CFCDB
:104BE0004FEAEC71002907DA0A460021DCF1000CDB
:104BF00061EB02012D2202E0220504D52B228DF863
:104C00000420012203E0E20701D02022F7E79046CA
:104C100059E00A2102E010220DE010214FF0000AB5
:104C200000910BE010224FF0000A44F00404082722
:104C3000009203E008224FF0000A0092C4F30252EF
:104C4000022A05D059F804CB0021032A08D009E034
:104C500009F1070121F00702F2E802C1914605E0DF
:104C60001FFA8CFC042A01D10CF0FF0C4FF0000855
:104C7000220728D5702806D0009B83F0100353EA42
:104C80000A0305D00EE040228DF80420012208E03E
:104C90005CEA010206D030228DF804208DF8050070
:104CA00002229046009B83F0080353EA0A030AD1CC
:104CB0005CEA010201D1620705D530228DF804209B
:104CC0004FF001087F1E582804D034A003900EA88E
:104CD00002900DE036A0F9E753466046009AFFF7D0
:104CE000B3FB84460398825C0298401E02900270D7
:104CF0005CEA0100F0D1029806A9081A00F1200A26
:104D0000600702D524F4803400E00127574502DD16
:104D1000A7EB0A0000E0002000EB0A0100900598D4
:104D20004144401A0590E00306D45B462146179A99
:104D3000059800F0B3F90544002706E001A85A469B
:104D4000C05D179990476D1C7F1C4745F6DBE0035B
:104D50000CD55B462146179A059800F09FF905444B
:104D600004E030205A46179990476D1C0099481E60
:104D700000900029F5DC08E0029802995A46007874
:104D8000491C0291179990476D1CBAF10001AAF1D4
:104D9000010AF1DC65E100000928010030313233FD
:104DA0003435363738396162636465660000000067
:104DB0003031323334353637383941424344454651
:104DC0000000000000F058F90544761C30780028F7
:104DD0007FF4ECAD19B02846BDE8F08F620700D42F
:104DE000062709F1070222F0070CFCE80223E1463E
:104DF00003F000485FEA080C02D00FF2702C0DE0BF
:104E00005FEA045C02D50FF2682C07E05FEAC47C1D
:104E100002D00FF2602C01E0AFF2700C4FF0FF38BF
:104E200023F00043CDF850C065280CD006DC45289F
:104E300009D046281DD047283DD13DE0662818D02E
:104E400067287ED138E00021112F01DB112000E01E
:104E5000781CCDE9000106A90EA8FFF7DDFCDDE90D
:104E60000F010E9A03910021009207F1010A0491AB
:104E70004DE04FF000400097CDE9011006A90EA8C3
:104E8000FFF7CAFCDDE90F0203920E9B1199002285
:104E9000DDF80CA00093049211B9791C00EB010A13
:104EA000B7EB0A0004D4C0F1FF3007F1010A049007
:104EB000AAEB0700019044E0012F00DA012700214E
:104EC000112F01DD112000E03846CDE9000106A9CF
:104ED0000EA8FFF7A1FCDDE90F010E9A0391002156
:104EE00004910092BA4621070CD40399514500DA87
:104EF0008A46BAF1010F05DD009AAAF10101515C61
:104F0000302908D0B84202DA10F1040F06DA012184
:104F1000CDE9011015E0AAF10101E9E7002805DC5F
:104F2000049901440491AAEB000102E0411C51459F
:104F300000DD8A460499401A401C01904FF0004061
:104F40000290200704D40198504501DBCDF804807D
:104F500000208DF84F0002980DF14F07B0F1004F7F
:104F600025D02B200E9002984FF0020800280CDA72
:104F7000404202902D200E9007E00A210298FFF790
:104F80004DFA3031029007F8011DB8F10001A8F187
:104F90000108F2DC02980028EFD1791E0E98087003
:104FA000307800F0200040F0450007F8020D12A80C
:104FB000C01B00F107081498007800B1012000EB35
:104FC0000A01019801EBE07105984144401A401E26
:104FD0000590E00306D45B462146179A059800F039
:104FE0005DF805441498007818B15A46179990470F
:104FF0006D1CE00324D55B462146179A059800F006
:105000004DF805441CE00498002807DBDDE90301A6
:10501000884203DD0098405C179901E01799302021
:105020005A469047049805F10105401C04900198E8
:10503000401E019004D12E205A46179990476D1CAE
:10504000BAF10001AAF1010ADDDC05E017F8010B55
:105050005A46179990476D1CB8F10001A8F1010854
:10506000F4DC5B462146179A0598ABE62D0000005C
:105070002B000000200000002DE9F041044600252F
:105080001E461746880404D405E039462020B04760
:105090006D1C641EF9D52846BDE8F0812DE9F0416C
:1050A000044600251E469046C80301D5302700E07F
:1050B0002027880404D505E041463846B0476D1CDA
:1050C000641EF9D52846BDE8F081004000C0F33FDA
:1050D00000C0E73F00C0DA3F00C0CE3F00C0C13F84
:1050E00000C0B53F00C0A83F00C09B3F00C08F3F3D
:1050F00000C0823F00C0763F01C0693F01C05D3FF4
:1051000001C0503F01C0443F01C0373F01C02A3FAA
:1051100001C01E3F02C0113F02C0053F02C0F83E61
:1051200002C0EC3E02C0DF3E03C0D23E03C0C63E1A
:1051300003C0B93E03C0AD3E04C0A03E04C0943ECF
:1051400004C0873E04C07A3E05C06E3E05C0613E85
:1051500005C0553E06C0483E06C03C3E06C02F3E38
:1051600007C0233E07C0163E07C0093E08C0FD3DEC
:1051700008C0F03D09C0E43D09C0D73D09C0CB3DA2
:105180000AC0BE3D0AC0B23D0BC0A53D0BC0983D54
:105190000CC08C3D0CC07F3D0DC0733D0DC0663D05
:1051A0000EC05A3D0EC04D3D0FC0403D0FC0343DB6
:1051B00010C0273D10C01B3D11C00E3D11C0023D67
:1051C00012C0F53C13C0E93C13C0DC3C14C0D03C19
:1051D00014C0C33C15C0B63C16C0AA3C16C09D3CCA
:1051E00017C0913C18C0843C18C0783C19C06B3C77
:1051F0001AC05F3C1AC0523C1BC0453C1CC0393C25
:105200001DC02C3C1DC0203C1EC0133C1FC0073CD1
:1052100020C0FA3B20C0EE3B21C0E13B22C0D53B81
:1052200023C0C83B24C0BC3B24C0AF3B25C0A23B2D
:1052300026C0963B27C0893B28C07D3B29C0703BD8
:105240002AC0643B2BC0573B2BC04B3B2CC03E3B82
:105250002DC0323B2EC0253B2FC0193B30C00C3B2C
:1052600031C0003B32C0F33A33C0E63A34C0DA3AD8
:1052700035C0CD3A36C0C13A37C0B43A38C0A83A82
:1052800039C09B3A3AC08F3A3BC0823A3CC0763A2A
:105290003DC0693A3FC05D3A40C0503A41C0443ACF
:1052A00042C0373A43C02B3A44C01E3A45C0123A76
:1052B00047C0053A48C0F93949C0EC394AC0E0391D
:1052C0004BC0D3394CC0C7394EC0BA394FC0AE39C4
:1052D00050C0A13951C0953953C0883954C07C3968
:1052E00055C06F3956C0633958C0563959C04A390C
:1052F0005AC03D395CC031395DC024395EC01839AF
:1053000060C00B3961C0FF3862C0F23864C0E63853
:1053100065C0D93867C0CD3868C0C03869C0B438F6
:105320006BC0A7386CC09B386EC08E386FC0823897
:1053300071C0753872C0693874C05C3875C0503837
:1053400077C0433878C037387AC02A387BC01E38D7
:105350007DC011387EC0053880C0F93781C0EC3778
:1053600083C0E03785C0D33786C0C73788C0BA3717
:1053700089C0AE378BC0A1378DC095378EC08837B6
:1053800090C07C3792C06F3793C0633795C0573752
:1053900097C04A3798C03E379AC031379CC02537EE
:1053A0009EC018379FC00C37A1C0FF36A3C0F3368C
:1053B000A5C0E736A6C0DA36A8C0CE36AAC0C13628
:1053C000ACC0B536AEC0A836AFC09C36B1C09036C2
:1053D000B3C08336B5C07736B7C06A36B9C05E365B
:1053E000BBC05136BDC04536BEC03936C0C02C36F4
:1053F000C2C02036C4C01336C6C00736C8C0FA358E
:10540000CAC0EE35CCC0E235CEC0D535D0C0C93526
:10541000D2C0BC35D4C0B035D6C0A435D8C09735BD
:10542000DAC08B35DCC07E35DEC07235E0C0663553
:10543000E2C05935E4C04D35E7C04035E9C03435E8
:10544000EBC02835EDC01B35EFC00F35F1C003357B
:10545000F3C0F634F6C0EA34F8C0DD34FAC0D13413
:10546000FCC0C534FEC0B83400C1AC3403C1A034A4
:1054700005C1933407C1873409C17B340CC16E3434
:105480000EC1623410C1553413C1493415C13D34C5
:1054900017C1303419C124341CC118341EC10B3457
:1054A00020C1FF3323C1F33325C1E63328C1DA33EA
:1054B0002AC1CE332CC1C1332FC1B53331C1A93379
:1054C00034C19C3336C1903338C184333BC1773308
:1054D0003DC16B3340C15F3342C1523345C1463396
:1054E00047C13A334AC12D334CC121334FC1153323
:1054F00051C1083354C1FC3256C1F03259C1E432B3
:105500005BC1D7325EC1CB3261C1BF3263C1B2323F
:1055100066C1A63268C19A326BC18E326EC18132C9
:1055200070C1753273C1693276C15C3278C1503254
:105530007BC144327EC1383280C12B3283C11F32DD
:1055400086C1133289C107328BC1FA318EC1EE3167
:1055500091C1E23194C1D53196C1C93199C1BD31F2
:105560009CC1B1319FC1A431A2C19831A4C18C3179
:10557000A7C18031AAC17431ADC16731B0C15B31FF
:10558000B3C14F31B6C14331B8C13631BBC12A3185
:10559000BEC11E31C1C11231C4C10531C7C1F9300C
:1055A000CAC1ED30CDC1E130D0C1D530D3C1C83092
:1055B000D6C1BC30D9C1B030DCC1A430DFC1983015
:1055C000E2C18B30E5C17F30E8C17330EBC1673099
:1055D000EEC15B30F1C14E30F4C14230F7C136301C
:1055E000FAC12A30FDC11E3001C2123004C205309A
:1055F00007C2F92F0AC2ED2F0DC2E12F10C2D52F1D
:1056000013C2C92F17C2BC2F1AC2B02F1DC2A42F9C
:1056100020C2982F23C28C2F27C2802F2AC2742F1A
:105620002DC2672F30C25B2F34C24F2F37C2432F9A
:105630003AC2372F3EC22B2F41C21F2F44C2132F15
:1056400047C2062F4BC2FA2E4EC2EE2E51C2E22E98
:1056500055C2D62E58C2CA2E5CC2BE2E5FC2B22E12
:1056600062C2A62E66C2992E69C28D2E6DC2812E8F
:1056700070C2752E73C2692E77C25D2E7AC2512E0A
:105680007EC2452E81C2392E85C22D2E88C2212E82
:105690008CC2152E8FC2092E93C2FC2D96C2F02DFE
:1056A0009AC2E42D9DC2D82DA1C2CC2DA5C2C02D79
:1056B000A8C2B42DACC2A82DAFC29C2DB3C2902DF0
:1056C000B7C2842DBAC2782DBEC26C2DC1C2602D66
:1056D000C5C2542DC9C2482DCCC23C2DD0C2302DDC
:1056E000D4C2242DD8C2182DDBC20C2DDFC2002D50
:1056F000E3C2F42CE6C2E82CEAC2DC2CEEC2D02CC9
:10570000F2C2C42CF5C2B82CF9C2AC2CFDC2A02C3C
:1057100001C3942C05C3882C08C37C2C0CC3702CAB
:1057200010C3642C14C3582C18C34C2C1CC3402C1D
:1057300020C3342C23C3282C27C31C2C2BC3102C90
:105740002FC3052C33C3F92B37C3ED2B3BC3E12B00
:105750003FC3D52B43C3C92B47C3BD2B4BC3B12B71
:105760004FC3A52B53C3992B57C38D2B5BC3812BE1
:105770005FC3752B63C36A2B67C35E2B6BC3522B4E
:105780006FC3462B73C33A2B77C32E2B7BC3222BBD
:105790007FC3162B83C30A2B87C3FF2A8CC3F32A2C
:1057A00090C3E72A94C3DB2A98C3CF2A9CC3C32A99
:1057B000A0C3B72AA5C3AC2AA9C3A02AADC3942A03
:1057C000B1C3882AB5C37C2ABAC3702ABEC3652A6E
:1057D000C2C3592AC6C34D2ACAC3412ACFC3352AD8
:1057E000D3C3292AD7C31E2ADCC3122AE0C3062A40
:1057F000E4C3FA29E9C3EE29EDC3E329F1C3D729AC
:10580000F6C3CB29FAC3BF29FEC3B42903C4A82910
:1058100007C49C290BC4902910C4842914C4792975
:1058200019C46D291DC4612922C4552926C44A29D9
:105830002AC43E292FC4322933C4262938C41B293F
:105840003CC40F2941C4032945C4F7284AC4EC28A5
:105850004EC4E02853C4D42857C4C9285CC4BD280A
:1058600061C4B12865C4A5286AC49A286EC48E286C
:1058700073C4822878C477287CC46B2881C45F28CD
:1058800085C454288AC448288FC43C2893C431282E
:1058900098C425289DC41928A1C40E28A6C402288E
:1058A000ABC4F627B0C4EB27B4C4DF27B9C4D327F1
:1058B000BEC4C827C2C4BC27C7C4B127CCC4A5274F
:1058C000D1C49927D6C48E27DAC48227DFC47727AC
:1058D000E4C46B27E9C45F27EEC45427F2C4482709
:1058E000F7C43D27FCC4312701C5252706C51A2763
:1058F0000BC50E2710C5032715C5F7261AC5EC26BC
:105900001EC5E02623C5D42628C5C9262DC5BD261B
:1059100032C5B22637C5A6263CC59B2641C58F2673
:1059200046C584264BC5782650C56D2655C56126CB
:105930005AC556265FC54A2664C53F2669C5332623
:105940006EC5282673C51C2678C511267EC505267A
:1059500083C5FA2588C5EE258DC5E32592C5D725D3
:1059600097C5CC259CC5C025A1C5B525A7C5A9252A
:10597000ACC59E25B1C59225B6C58725BBC57C257E
:10598000C1C57025C6C56525CBC55925D0C54E25D1
:10599000D5C54225DBC53725E0C52C25E5C5202525
:1059A000EAC51525F0C50925F5C5FE24FAC5F32479
:1059B00000C6E72405C6DC240AC6D02410C6C524C8
:1059C00015C6BA241AC6AE2420C6A32425C6982418
:1059D0002AC68C2430C6812435C676243BC66A2468
:1059E00040C65F2445C654244BC6482450C63D24B7
:1059F00056C632245BC6262461C61B2466C6102404
:105A00006CC6042471C6F92377C6EE237CC6E22354
:105A100082C6D72387C6CC238DC6C12392C6B523A1
:105A200098C6AA239DC69F23A3C69423A8C68823ED
:105A3000AEC67D23B4C67223B9C66723BFC65B2337
:105A4000C5C65023CAC64523D0C63A23D5C62E2381
:105A5000DBC62323E1C61823E6C60D23ECC60123CB
:105A6000F2C6F622F7C6EB22FDC6E02203C7D52216
:105A700009C7CA220EC7BE2214C7B3221AC7A8225A
:105A800020C79D2225C792222BC7872231C77B22A0
:105A900037C770223DC7652242C75A2248C74F22E6
:105AA0004EC7442254C739225AC72D225FC722222B
:105AB00065C717226BC70C2271C7012277C7F62171
:105AC0007DC7EB2183C7E02189C7D5218FC7CA21B4
:105AD00095C7BE219AC7B321A0C7A821A6C79D21FB
